:020000040000FA
:100000000C945E000C9486000C9486000C94860080
:100010000C9486000C9486000C9486000C94860048
:100020000C9486000C9486000C9486000C94B30506
:100030000C9486000C9486000C9486000C94860028
:100040000C9469050C9486000C9437050C941105EA
:100050000C9486000C9486000C9486000C94860008
:100060000C9486000C948600000000080002010039
:100070000003040700000000000000000000000072
:10008000250028002B0000000000240027002A0083
:10009000040404040404040402020202020203032E
:1000A0000303030301020408102040800102040836
:1000B00010200102040810206F06980A11241FBEA8
:1000C000CFEFD8E0DEBFCDBF11E0A0E0B1E0EEEDB4
:1000D000FEE102C005900D92A039B107D9F722E0E8
:1000E000A0E9B1E001C01D92A63AB207E1F710E025
:1000F000CDE5D0E004C02197FE010E94610DCC3512
:10010000D107C9F70E941C070C94620F0C940000E1
:1001100090E0FC01EC55FF4F249180579F4FFC016C
:100120008491882399F090E0880F991FFC01EA5789
:10013000FF4FA591B491FC01E458FF4F8591949134
:100140008FB7F894EC91E22BEC938FBF0895AF92A8
:10015000BF92CF92DF92EF92FF920F931F93CF93B4
:10016000DF936C017B018B01040F151FEB015E0116
:10017000AE18BF08C017D10759F06991D601ED91AB
:10018000FC910190F081E02DC6010995892B79F74A
:10019000C501DF91CF911F910F91FF90EF90DF90FC
:1001A000CF90BF90AF900895FC01538D448D252FC3
:1001B00030E0842F90E0821B930B541710F0CF9601
:1001C000089501970895FC01918D828D981761F033
:1001D000A28DAE0FBF2FB11D5D968C91928D9F5F4A
:1001E0009F73928F90E008958FEF9FEF0895FC0129
:1001F000918D828D981731F0828DE80FF11D858DDC
:1002000090E008958FEF9FEF0895FC01918D228D6E
:10021000892F90E0805C9F4F821B91098F739927F3
:10022000089581EA91E00E94050121E0892B09F4FB
:1002300020E0822F089580E090E0892B29F00E9431
:10024000110181110C9400000895FC01A48DA80FE8
:10025000B92FB11DA35ABF4F2C91848D90E0019608
:100260008F739927848FA689B7892C93A089B18928
:100270008C91837080648C93938D848D981306C0C9
:100280000288F389E02D80818F7D80830895EF922D
:10029000FF920F931F93CF93DF93EC0181E0888F40
:1002A0009B8D8C8D98131AC0E889F989808185FF10
:1002B00015C09FB7F894EE89FF896083E889F989B2
:1002C00080818370806480839FBF81E090E0DF91B4
:1002D000CF911F910F91FF90EF900895F62E0B8D07
:1002E00010E00F5F1F4F0F731127E02E8C8D8E11C2
:1002F0000CC00FB607FCFACFE889F989808185FF29
:10030000F5CFCE010E942501F1CFEB8DEC0FFD2F33
:10031000F11DE35AFF4FF0829FB7F8940B8FEA89E3
:10032000FB8980818062CFCFCF93DF93EC01888DF2
:100330008823B9F0AA89BB89E889F9898C9185FD60
:1003400003C0808186FD0DC00FB607FCF7CF8C91EE
:1003500085FFF2CF808185FFEDCFCE010E94250180
:10036000E9CFDF91CF91089590E0FC01E859FF4F6C
:100370002491FC01EC55FF4F3491FC01E057FF4FF5
:10038000E491EE23C9F0222339F0233001F1A8F4DF
:10039000213019F1223029F1F0E0EE0FFF1FE4586F
:1003A000FF4FA591B4918FB7F894EC91611126C0DD
:1003B00030953E233C938FBF08952730A9F0283015
:1003C000C9F0243049F7809180008F7D03C080916F
:1003D00080008F7780938000DFCF84B58F7784BDD6
:1003E000DBCF84B58F7DFBCF8091B0008F7780937A
:1003F000B000D2CF8091B0008F7DF9CF3E2BDACF05
:100400003FB7F8948091960190919701A09198013F
:10041000B091990126B5A89B05C02F3F19F0019610
:10042000A11DB11D3FBFBA2FA92F982F8827BC014E
:10043000CD01620F711D811D911D42E0660F771F76
:10044000881F991F4A95D1F708958F929F92AF9276
:10045000BF92CF92DF92EF92FF920E9400024B0177
:100460005C018CE2C82EDD24D394E12CF12C0E9497
:100470000002681979098A099B09683E7340810561
:100480009105A8F321E0C21AD108E108F10888EE2D
:10049000880E83E0981EA11CB11CC114D104E10494
:1004A000F10429F7FF90EF90DF90CF90BF90AF90CD
:1004B0009F908F900895089590E080E00895CF93E5
:1004C000DF93EC0160E08E810E94B40161E08E81D7
:1004D0000E94B40160E08E810E94B4018BE891E03B
:1004E0000197F1F7DF91CF910895CF92DF92EF92CC
:1004F000FF920F931F93CF93DF936C017C0187E0F2
:10050000E80EF11CD0E0C0E0062F10E0B8010C2E80
:1005100002C0759567950A94E2F76170F7018191C1
:100520007F010E94B4012196C430D10579F7C6013C
:10053000DF91CF911F910F91FF90EF90DF90CF90BF
:100540000C945F02CF92DF92EF92FF920F931F9372
:10055000CF93DF93EC01F62E642F8C810E94B401BF
:100560008D818F3F19F060E00E94B4010F2D10E0E3
:100570008F8584FF25C06E0187E0C80ED11CF12C49
:10058000E12CB8010E2C02C0759567950A94E2F72C
:100590006170F60181916F010E94B401FFEFEF1AC3
:1005A000FF0A88E0E816F10461F7CE01DF91CF91F0
:1005B0001F910F91FF90EF90DF90CF900C945F020E
:1005C000B80184E0759567958A95E1F7CE010E94A0
:1005D00075026F2DCE01DF91CF911F910F91FF908A
:1005E000EF90DF90CF900C94750240E0682F87E881
:1005F00092E00C94A202CF93DF93823029F4909181
:10060000960298609093960280939A0210929B02B1
:1006100080E480939C0280E180939D0280E580933A
:100620009E0280918B020E94880080918C028F3FF5
:1006300011F00E94880080918D020E948800C7E816
:10064000D2E09E01275832408091960284FD0AC074
:1006500084E090E02196281739073CF48E810E94AF
:100660008800EFCF88E090E0F5CF8BE39DE0019725
:10067000F1F760E080918B020E94B40160E080910C
:100680008D020E94B40180918C028F3F19F060E0CE
:100690000E94B4018091960284FD39C063E087E82E
:1006A00092E00E947502CBE4D6E4CE010197F1F707
:1006B00063E087E892E00E9475022197F1F763E01A
:1006C00087E892E00E94750283E592E00197F1F7D6
:1006D00062E087E892E00E94750280919602806253
:1006E0000E94F50284E0809397028CE00E94F5025C
:1006F00081E00E94F5028BE39FE10197F1F782E030
:100700008093980286E0DF91CF910C94F50280628D
:100710000E94F5028BE496E40197F1F7809196022E
:1007200080620E94F50283E592E00197F1F78091E3
:10073000960280620E94F502D0CF90919A026917CA
:1007400010F06FEF690FE62FF0E0E957FD4F948945
:10075000890F80680C94F50241E00E94A20281E0BA
:1007600090E008950F931F93CF93DF938B0128E0C0
:10077000829FC001112480640E94F502E801085F95
:100780001F4F699187E892E00E94AC03C017D10720
:10079000C1F7DF91CF911F910F910895DC01ED9189
:1007A000FC9111976091690270916A023097D9F0BB
:1007B00061157105A9F414968D919C91892BB1F066
:1007C000808190E0089580916D0290916E02892B56
:1007D00069F0FB01808190E09195819591090895E0
:1007E000CF010C94520F6115710569F790E080E01C
:1007F00008950F931F93CF93DF93EC018881998124
:10080000009759F02A813B812617370730F081E0A5
:10081000DF91CF911F910F9108958B016F5F7F4FF3
:100820000E948C0E009759F0998388831B830A835A
:100830002C813D81232B59F7FC011082E8CF80E009
:10084000E7CFEF92FF920F931F93CF93DF93611542
:10085000710541F480E0DF91CF911F910F91FF90DE
:10086000EF90089541155105B1F07B01EC010C8129
:100870001D81040F151FB8010E94F903882351F34D
:10088000288139818C819D81B701820F931F0E943D
:100890005B0F1D830C8381E0DECFCF93DF93EC01F0
:1008A00088819981009711F00E94030E19821882A5
:1008B0001D821C821B821A82DF91CF910895CF93F3
:1008C000DF93EC01FB0101900020E9F73197AF01C4
:1008D000461B570B0E942104811103C0CE010E94C8
:1008E0004D04CE01DF91CF910895CF93DF93EC01BA
:1008F000FB0144815581608171810E942104811135
:1009000003C0CE010E944D04CE01DF91CF91089526
:10091000EF92FF920F931F93CF93DF93EC017B0134
:100920008A01BA010E94F90381110BC0CE010E9415
:100930004D04CE01DF91CF911F910F91FF90EF9069
:1009400008951D830C83B701888199810E945B0FF4
:10095000F0CFEF92FF920F931F93CF93DF93CDB71A
:10096000DEB762970FB6F894DEBF0FBECDBF8C0125
:10097000CB01F80111821082138212821582148237
:100980004AE09E012F5F3F4F7901B9010E94B00AF2
:10099000F70101900020E9F73197AF014E195F0987
:1009A000B701C8010E94880462960FB6F894DEBFB2
:1009B0000FBECDBFDF91CF911F910F91FF90EF90B0
:1009C0000895CF93DF93EC01FB018617970749F059
:1009D000608171816115710541F0448155810E94EA
:1009E0008804CE01DF91CF9108950E944D04F9CF84
:1009F000FC01118210821382128215821482FB0183
:100A000001900020E9F73197AF01461B570B0C947A
:100A10008804FC0180819181009711F00C94030EF1
:100A200008951F920F920FB60F9211242F933F93A8
:100A30004F935F936F937F938F939F93AF93BF93E6
:100A4000EF93FF9381EA91E00E942501FF91EF91DE
:100A5000BF91AF919F918F917F916F915F914F91D6
:100A60003F912F910F900FBE0F901F9018951F92DE
:100A70000F920FB60F9211242F938F939F93EF93A2
:100A8000FF93E091B101F091B2018081E091B70153
:100A9000F091B80182FD1BC090818091BA018F5FF7
:100AA0008F732091BB01821741F0E091BA01F0E011
:100AB000EF55FE4F958F8093BA01FF91EF919F9173
:100AC0008F912F910F900FBE0F901F9018958081DE
:100AD000F4CF1F920F920FB60F9211242F933F93D2
:100AE0008F939F93AF93BF938091920190919301C5
:100AF000A0919401B09195013091910123E0230FD1
:100B00002D3758F50196A11DB11D209391018093B9
:100B1000920190939301A0939401B09395018091D9
:100B2000960190919701A0919801B0919901019639
:100B3000A11DB11D8093960190939701A0939801F8
:100B4000B0939901BF91AF919F918F913F912F9158
:100B50000F900FBE0F901F90189526E8230F029656
:100B6000A11DB11DD2CF1F920F920FB60F9211246B
:100B70002F933F934F935F936F937F938F939F93A5
:100B8000AF93BF93CF93DF93EF93FF938091900147
:100B9000C0916202D0E087FF24C0109285001092BD
:100BA0008400809190018F5F8093900180919001EB
:100BB000082E000C990B8C179D0724F4809190014E
:100BC0008C30C4F18091840090918500049680342B
:100BD0009C4908F47AC08091840090918500049625
:100BE00076C080919001082E000C990B8C179D0700
:100BF000C4F6E09190018E2FEE0F990BFC01EE0FE1
:100C0000FF1FE80FF91FE25CFD4F808186FFC9CF0F
:100C1000E09190018E2FEE0F990BFC01EE0FFF1F5C
:100C2000E80FF91FE25CFD4F808160E08F730E9446
:100C3000B401B7CF2091840030918500E0919001FC
:100C40008E2FEE0F990BFC01EE0FFF1FE80FF91F1F
:100C5000E25CFD4F81819281820F931F9093890006
:100C600080938800E09190018E2FEE0F990BFC018C
:100C7000EE0FFF1FE80FF91FE25CFD4F808186FF3A
:100C800011C0E09190018E2FEE0F990BFC01EE0F39
:100C9000FF1FE80FF91FE25CFD4F808161E08F7359
:100CA0000E94B401FF91EF91DF91CF91BF91AF917D
:100CB0009F918F917F916F915F914F913F912F9174
:100CC0000F900FBE0F901F90189580E49CE99093B1
:100CD0008900809388008FEF80939001E3CF10927A
:100CE000A4011092A30188EE93E0A0E0B0E080930D
:100CF000A5019093A601A093A701B093A80187E452
:100D000091E09093A2018093A10185EC90E09093F3
:100D1000AE018093AD0184EC90E09093B00180939C
:100D2000AF0180EC90E09093B2018093B10181EC2F
:100D300090E09093B4018093B30182EC90E09093A3
:100D4000B6018093B50186EC90E09093B801809352
:100D5000B7011092BA011092BB011092BC0110921F
:100D6000BD01809162028C3008F062C091E0980F62
:100D70009093620280939F0290E0FC01EE0FFF1FB0
:100D8000E80FF91FE25CFD4F88EB9BE092838183C3
:100D900010928A021092890289E591E0909388026C
:100DA000809387028CE080938B028FEF80938C027C
:100DB0008BE080938D0285E080938E0284E08093A7
:100DC0008F0283E08093900282E0809391021092E0
:100DD0009202109293021092940210929502109235
:100DE000960281E00E94FB0261E671E08FE692E0EC
:100DF0000E94F80464E671E085E792E00E94F8043E
:100E000067E671E08BE792E00E94F80465E671E026
:100E100081E892E00E94F80461E671E089E692E0E0
:100E20000E94F8046EE871E083E692E00C94F80406
:100E30008FEF80939F02ACCFCF93DF93CDB7DEB718
:100E400068970FB6F894DEBF0FBECDBF789484B517
:100E5000826084BD84B5816084BD85B5826085BDB6
:100E600085B5816085BD80916E00816080936E0044
:100E70001092810080918100826080938100809136
:100E800081008160809381008091800081608093E7
:100E900080008091B10084608093B1008091B000A7
:100EA00081608093B00080917A00846080937A00A2
:100EB00080917A00826080937A0080917A008160CC
:100EC00080937A0080917A00806880937A001092F3
:100ED000C100E091B101F091B20182E08083E09124
:100EE000AD01F091AE011082E091AF01F091B0013F
:100EF0008FEC80831092B901E091B501F091B601B9
:100F000086E08083E091B301F091B401808180613B
:100F10008083E091B301F091B40180818860808387
:100F2000E091B301F091B401808180688083E09109
:100F3000B301F091B40180818F7D808368E171E01D
:100F400080E00E94B20360E171E081E00E94B203A0
:100F500068E071E082E00E94B20360E071E083E04B
:100F60000E94B20382E00E94FB028DE00E94880092
:100F70000BE211E0F801F0800E5F1F4F8F2D0E94F1
:100F8000880060E08F2D0E94B401F1E003331F0759
:100F900089F780919F028C3008F050C086E00E9453
:100FA000880080919F02282F30E0F901EE0FFF1F8B
:100FB000E20FF31FE25CFD4F9081907C966090837E
:100FC0001092A0021092A1022CE0622F0E94550DF7
:100FD000829FB001112430E020E0AB01420F531F8B
:100FE000FA01EE0FFF1FE40FF51FE25CFD4F908149
:100FF00096FD16C02F5F3F4F2C30310571F78111E0
:101000000FC01092800082E08093810010928500D2
:1010100010928400B19A80916F00826080936F007B
:10102000E0919F028E2F90E0FC01EE0FFF1FE80F72
:10103000F91FE25CFD4F808180648083BBE3AB2EAF
:10104000BFE1BB2EE0E44E2EF6E05F2EA0E06A2E5C
:10105000A0E07A2E009120011091210120919C01A5
:1010600030919D0180912201909123012817390729
:10107000E9F480919A0190919B0180179107B1F456
:1010800080919E01811112C0209167023091680207
:1010900080916D0290916E022817390739F483E62A
:1010A00092E00E94CE03892B09F4B3C081E00E9434
:1010B000F502C5010197F1F760E080E00E949D0311
:1010C000B801CE0101960E94A9046091220170919D
:1010D0002301CE0107960E94A9046AE671E0CE01C1
:1010E0000D960E94F804BE01695F7F4FCE010D96F8
:1010F0000E94750469E672E00E9475046DE671E075
:101100000E945F04BE016F5F7F4F0E947504FC0167
:10111000448155816081718187E892E00E94A70037
:10112000CE010D960E940905CE0107960E94090581
:10113000CE0101960E94090561E080E00E949D03B6
:1011400062E087E892E00E94AC038091240188234A
:1011500041F048E050E061E771E087E892E00E94EA
:10116000A70080919F018823C9F06AE771E0CE0152
:1011700001960E94F80469E672E0CE0101960E9491
:101180007504FC01448155816081718187E892E09A
:101190000E94A700CE0101960E9409058091A0013E
:1011A000882341F047E050E060E871E087E892E092
:1011B0000E94A70063E087E892E00E94AC0360E031
:1011C0008FE00E949D0360E087E892E00E94AC03FC
:1011D00061E08FE00E949D0361E087E892E00E9459
:1011E000AC03809122019091230190939D01809303
:1011F0009C01809120019091210190939B0180930B
:101200009A0110929E0169E672E083E692E00E94E4
:10121000E10440927C0080917A00806480937A009F
:1012200080917A0086FDFCCF9091780080917900C2
:10123000892798278927EE24EA94FE2C8A3F910576
:101240007CF0F12CE12C843FF1E09F074CF0EE2480
:10125000E394F12C8E3E92401CF053E0E52EF12CED
:1012600032E0E316F10408F03DC1809124018823A7
:1012700009F477C08091220190912301EA94EF282C
:1012800009F06DC0823091052CF0019790932301F5
:10129000809322010E9425026091A00170E0CE019E
:1012A00001960E94A90460919F0170E0CE0107960B
:1012B0000E94A9046091240170E0CE0143960E942F
:1012C000A9041E861D86188A1F861A8A198ABE01DD
:1012D0006D5E7F4FCE010D960E94E10468E871E0DB
:1012E000CE010D960E945F04BE01695F7F4F0E9490
:1012F000750468E871E00E945F04BE016F5F7F4F74
:101300000E947504FC01448155816081718181EAEC
:1013100091E00E94A70042E050E06CE871E081EAB1
:1013200091E00E94A700CE010D960E940905CE0112
:1013300043960E940905CE0107960E940905CE0139
:1013400001960E9409056114710409F483CE0E947C
:101350001101882309F476CE0E94000073CE019615
:1013600095CF80919F01882309F4A5C080906D02DC
:1013700090906E024FE6C42E42E0D42E10E000E0C2
:101380000430110509F4CEC0F601848195818815D9
:10139000990589F5C6010E94CE03892B61F5EF28D6
:1013A00081F10115110509F475CF780131E0E31AD7
:1013B000F1085E9CB0015F9C700D112461597D4F56
:1013C00089E692E00E94E104000F111F000F111F37
:1013D000F801ED5CFE4FD701AA0FBB1FAA0FBB1F80
:1013E000AD5CBE4F2D913D914D915C9160817181BD
:1013F000828193812FC00F5F1F4FF6E0CF0ED11C6B
:10140000BFCF0330110509F445CF78012FEFE21A61
:10141000F20A5E9CB0015F9C700D112461597D4FF2
:1014200089E692E00E94E104000F111F000F111FD6
:10143000D801AD5CBE4FF701EE0FFF1FEE0FFF1F8F
:10144000ED5CFE4F20813181428153816D917D9110
:101450008D919C910E94A80C6B017C0160912201EE
:1014600070912301072E000C880B990B0E94E70A4C
:101470009B01AC01C701B6010E94460B6B017C01C8
:1014800020E030E0A9010E94500D20E030E040E073
:101490005FE387FD0BC0C701B6010E943C0C0E94B0
:1014A0001A0D7093230160932201F4CEC701B60197
:1014B0000E943B0CF4CF8091A001882309F4EACE6E
:1014C0008091200190912101EF2831F401969093B1
:1014D000210180932001DECE181619060CF0DACE19
:1014E0000197F5CFC7010297029708F0D5CE20915A
:1014F000A00180919F0190912401E3E0EE16F10498
:1015000051F48093240120939F019093A00181E0E6
:1015100080939E01BFCE2093240190939F018093DE
:10152000A001F5CFEF2809F0B5CE10E000E06DCFB7
:1015300083E692E00E94090589E692E00E9409058F
:1015400081E892E00E9409058BE792E00E9409057C
:1015500085E792E00E9409058FE692E00C94090568
:10156000BB274A3031F4992322F4BDE2909581954E
:101570009F4F0C94BC0ABB27FB015527AA27880F55
:10158000991FAA1FA41710F0A41B83955051B9F7F7
:10159000A05DAA3308F0A95DA193009779F7B11176
:1015A000B1931192CB010C94D50ADC01FC01672F99
:1015B00071917723E1F7329704C07C916D9370832A
:1015C0006291AE17BF07C8F30895E89409C097FB6E
:1015D0003EF490958095709561957F4F8F4F9F4F0A
:1015E0009923A9F0F92F96E9BB279395F69587954E
:1015F00077956795B795F111F8CFFAF4BB0F11F411
:1016000060FF1BC06F5F7F4F8F4F9F4F16C08823B7
:1016100011F096E911C0772321F09EE8872F762FED
:1016200005C0662371F096E8862F70E060E02AF02E
:101630009A95660F771F881FDAF7880F969587951A
:1016400097F90895990F0008550FAA0BE0E8FEEFEF
:1016500016161706E807F907C0F012161306E40776
:10166000F50798F0621B730B840B950B39F40A266F
:1016700061F0232B242B252B21F408950A2609F44D
:10168000A140A6958FEF811D811D08950E94590BE1
:101690000C94CA0B0E94BC0B38F00E94C30B20F0C4
:1016A000952311F00C94B30B0C94B90B11240C94EA
:1016B000FE0B0E94DB0B70F3959FC1F3950F50E07A
:1016C000551F629FF001729FBB27F00DB11D639FF4
:1016D000AA27F00DB11DAA1F649F6627B00DA11D9A
:1016E000661F829F2227B00DA11D621F739FB00D40
:1016F000A11D621F839FA00D611D221F749F3327B0
:10170000A00D611D231F849F600D211D822F762F48
:101710006A2F11249F5750409AF0F1F088234AF025
:10172000EE0FFF1FBB1F661F771F881F9150504091
:10173000A9F79E3F510580F00C94B30B0C94FE0B5F
:101740005F3FE4F3983ED4F3869577956795B79518
:10175000F795E7959F5FC1F7FE2B880F911D969532
:10176000879597F9089597F99F6780E870E060E0A2
:1017700008959FEF80EC089500240A94161617062A
:1017800018060906089500240A9412161306140672
:1017900005060895092E0394000C11F4882352F0D5
:1017A000BB0F40F4BF2B11F460FF04C06F5F7F4F8D
:1017B0008F4F9F4F089557FD9058440F551F59F074
:1017C0005F3F71F04795880F97FB991F61F09F3F2E
:1017D00079F087950895121613061406551FF2CF57
:1017E0004695F1DF08C0161617061806991FF1CFA7
:1017F00086957105610508940895E894BB276627CE
:101800007727CB0197F908952F923F924F925F92DD
:101810006F927F928F929F92AF92BF92CF92DF9200
:10182000EF92FF920F931F93CF93DF93CDB7DEB765
:10183000CA1BDB0B0FB6F894DEBF0FBECDBF0994F9
:101840002A88398848885F846E847D848C849B8450
:10185000AA84B984C884DF80EE80FD800C811B815E
:10186000AA81B981CE0FD11D0FB6F894DEBF0FBE8D
:10187000CDBFED0108955058BB27AA270E94530CF5
:101880000C94CA0B0E94BC0B38F00E94C30B20F0D2
:1018900039F49F3F19F426F40C94B90B0EF4E0953B
:1018A000E7FB0C94B30BE92F0E94DB0B58F3BA173C
:1018B000620773078407950720F079F4A6F50C9466
:1018C000FD0B0EF4E0950B2EBA2FA02D0B01B901E4
:1018D00090010C01CA01A0011124FF27591B99F0A6
:1018E000593F50F4503E68F11A16F040A22F232FB2
:1018F000342F4427585FF3CF469537952795A79502
:10190000F0405395C9F77EF41F16BA0B620B730BA8
:10191000840BBAF09150A1F0FF0FBB1F661F771F19
:10192000881FC2F70EC0BA0F621F731F841F48F4CE
:10193000879577956795B795F7959E3F08F0B0CF57
:101940009395880F08F09927EE0F9795879508953E
:101950000E94BC0C0C94CA0B0E94C30B58F00E944E
:10196000BC0B40F029F45F3F29F00C94B30B5111EC
:101970000C94FE0B0C94B90B0E94DB0B68F39923BB
:10198000B1F3552391F3951B550BBB27AA2762177B
:101990007307840738F09F5F5F4F220F331F441F88
:1019A000AA1FA9F335D00E2E3AF0E0E832D09150BC
:1019B0005040E695001CCAF72BD0FE2F29D0660FA9
:1019C000771F881FBB1F261737074807AB07B0E8EC
:1019D00009F0BB0B802DBF01FF2793585F4F3AF0F2
:1019E0009E3F510578F00C94B30B0C94FE0B5F3FB7
:1019F000E4F3983ED4F3869577956795B795F79578
:101A00009F5FC9F7880F911D9695879597F908955F
:101A1000E1E0660F771F881FBB1F621773078407FB
:101A2000BA0720F0621B730B840BBA0BEE1F88F70A
:101A3000E09508950E94210D6894B1110C94FE0B5D
:101A400008950E94E30B88F09F5798F0B92F9927CB
:101A5000B751B0F0E1F0660F771F881F991F1AF099
:101A6000BA95C9F714C0B13091F00E94FD0BB1E0F6
:101A700008950C94FD0B672F782F8827B85F39F0F5
:101A8000B93FCCF3869577956795B395D9F73EF432
:101A900090958095709561957F4F8F4F9F4F0895DA
:101AA0000E94220B08F48FEF0895991B79E004C07F
:101AB000991F961708F0961B881F7A95C9F780958D
:101AC0000895EE0FFF1F0590F491E02D09940F93F8
:101AD0001F93CF93DF938230910510F482E090E062
:101AE000E091A402F091A50230E020E0B0E0A0E097
:101AF000309799F42115310509F44AC0281B390B98
:101B000024303105D8F58A819B816115710589F1F1
:101B1000FB0193838283FE0111C0408151810281C8
:101B2000138148175907E0F04817590799F410979F
:101B300061F012960C93129713961C933296CF0174
:101B4000DF91CF911F910F9108950093A4021093FC
:101B5000A502F4CF2115310551F04217530738F093
:101B6000A901DB019A01BD01DF01F801C1CFEF013D
:101B7000F9CF9093A5028093A402CDCFFE01E20F8E
:101B8000F31F819391932250310939832883D7CF52
:101B90002091A2023091A302232B41F4209127012E
:101BA000309128013093A3022093A20220912501B5
:101BB000309126012115310541F42DB73EB74091F2
:101BC000290150912A01241B350BE091A202F091CA
:101BD000A302E217F307A0F42E1B3F0B28173907C7
:101BE00078F0AC014E5F5F4F2417350748F04E0F79
:101BF0005F1F5093A3024093A202819391939FCFC2
:101C0000F0E0E0E09CCFCF93DF930097E9F0FC0198
:101C1000329713821282A091A402B091A502ED0125
:101C200030E020E01097A1F420813181820F931FD2
:101C30002091A2023091A3022817390709F061C050
:101C4000F093A302E093A202DF91CF910895EA01FD
:101C5000CE17DF07E8F54A815B819E0141155105EA
:101C6000B1F7E901FB83EA8349915991C40FD51F6C
:101C7000EC17FD0761F4808191810296840F951F16
:101C8000E90199838883828193819B838A83F0E031
:101C9000E0E012968D919C9113970097B9F52D91E4
:101CA0003C911197CD010296820F931F2091A202C1
:101CB0003091A3022817390739F6309751F5109261
:101CC000A5021092A402B093A302A093A202BCCFDB
:101CD000D383C28340815181840F951FC817D907D0
:101CE00061F44E5F5F4F88819981480F591F51837E
:101CF00040838A819B81938382832115310509F07A
:101D0000B0CFF093A502E093A4029ECFFD01DC01C9
:101D1000C0CF13821282D7CFB0E0A0E0E2E9FEE0AC
:101D20000C94060C8C01009751F4CB010E94670DB6
:101D30008C01C801CDB7DEB7E0E10C94220CFC01A8
:101D4000E60FF71F9C0122503109E217F30708F450
:101D50009DC0D901CD91DC911197C617D70798F096
:101D6000C530D10530F3CE0104978617970708F3E5
:101D7000C61BD70B2297C193D1936D937C93CF0150
:101D80000E94030ED6CF5B01AC1ABD0A4C018C0E2B
:101D90009D1EA091A402B091A502512C412CF12CC2
:101DA000E12C109731F58091A2029091A302881541
:101DB000990509F05CC04616570608F058C0809196
:101DC000250190912601009741F48DB79EB740916F
:101DD000290150912A01841B950BE817F90708F097
:101DE00055C0F093A302E093A202F90171836083CE
:101DF000A0CF8D919C91119712966C90129713968B
:101E00007C901397A815B90559F56C0142E0C40EF2
:101E1000D11CCA14DB0420F1AC014A195B09DA01B8
:101E20001296159780F06282738251834083D901A4
:101E30006D937C93E114F10471F0D7011396FC9338
:101E4000EE93129776CF22968C0F9D1FF901918306
:101E50008083F301EFCFF093A502E093A40269CF52
:101E60004816590608F42C017D01D3019ACFCB0105
:101E70000E94670D7C01009749F0AE01B8010E94F5
:101E8000490FC8010E94030E870153CF10E000E004
:101E900050CFFB01DC0102C001900D924150504037
:101EA000D8F70895FB01DC018D9101908019011094
:101EB000D9F3990B0895FB01DC0101900D920020EC
:101EC000E1F7089510E0CDE5D0E004C0FE010E94E6
:101ED000610D2196CE35D107C9F7F894FFCF0004E4
:101EE000061F0604000000040C1F0C040000000E76
:101EF0000E1F0E0400000000040E1F0E0E00030053
:101F00003200010000A60280000A00090008000754
:101F1000006F12833A0AD7233CCDCCCC3D00008021
:101F20003F000000004701A700D40094010501E331
:101F300000F70000000000AC03A7005C025B026D2C
:101F40006D00636D00646D004C3D007C4E3D004CA7
:101F5000656E677468204C00556E69742000436F8D
:0E1F6000756E74204E00207C20000D0A0000DB
:107E0000112484B714BE81FFF0D085E080938100F7
:107E100082E08093C00088E18093C10086E0809377
:107E2000C20080E18093C4008EE0C9D0259A86E02C
:107E300020E33CEF91E0309385002093840096BBD3
:107E4000B09BFECF1D9AA8958150A9F7CC24DD24C4
:107E500088248394B5E0AB2EA1E19A2EF3E0BF2EE7
:107E6000A2D0813461F49FD0082FAFD0023811F036
:107E7000013811F484E001C083E08DD089C08234E0
:107E800011F484E103C0853419F485E0A6D080C0E4
:107E9000853579F488D0E82EFF2485D0082F10E0AE
:107EA000102F00270E291F29000F111F8ED06801E7
:107EB0006FC0863521F484E090D080E0DECF843638
:107EC00009F040C070D06FD0082F6DD080E0C81688
:107ED00080E7D80618F4F601B7BEE895C0E0D1E017
:107EE00062D089930C17E1F7F0E0CF16F0E7DF06D8
:107EF00018F0F601B7BEE89568D007B600FCFDCFD4
:107F0000A601A0E0B1E02C9130E011968C91119780
:107F100090E0982F8827822B932B1296FA010C0160
:107F200087BEE89511244E5F5F4FF1E0A038BF0790
:107F300051F7F601A7BEE89507B600FCFDCF97BE46
:107F4000E89526C08437B1F42ED02DD0F82E2BD052
:107F50003CD0F601EF2C8F010F5F1F4F84911BD097
:107F6000EA94F801C1F70894C11CD11CFA94CF0C13
:107F7000D11C0EC0853739F428D08EE10CD085E9AC
:107F80000AD08FE07ACF813511F488E018D01DD067
:107F900080E101D065CF982F8091C00085FFFCCF94
:107FA0009093C60008958091C00087FFFCCF809118
:107FB000C00084FD01C0A8958091C6000895E0E648
:107FC000F0E098E1908380830895EDDF803219F02E
:107FD00088E0F5DFFFCF84E1DECF1F93182FE3DFCA
:107FE0001150E9F7F2DF1F91089580E0E8DFEE27F6
:047FF000FF270994CA
:027FFE00040479
:00000001FF
