:020000040000FA
:100000000C945E000C9486000C9486000C94860080
:100010000C9486000C9486000C9486000C94860048
:100020000C9486000C9486000C9486000C94310687
:100030000C9486000C9486000C9486000C94860028
:100040000C94E7050C9486000C94B5050C948F0570
:100050000C9486000C9486000C9486000C94860008
:100060000C9486000C948600000000080002010039
:100070000003040700000000000000000000000072
:10008000250028002B0000000000240027002A0083
:10009000040404040404040402020202020203032E
:1000A0000303030301020408102040800102040836
:1000B0001020010204081020ED06CB0B11241FBEF6
:1000C000CFEFD8E0DEBFCDBF11E0A0E0B1E0EAE0C5
:1000D000F2E202C005900D92A23FB107D9F723E0EA
:1000E000A2EFB1E001C01D92AA30B207E1F710E023
:1000F000CDE5D0E004C02197FE010E94F70ECC357B
:10010000D107C9F70E949A070C94F8100C940000CC
:1001100090E0FC01EC55FF4F249180579F4FFC016C
:100120008491882399F090E0880F991FFC01EA5789
:10013000FF4FA591B491FC01E458FF4F8591949134
:100140008FB7F894EC91E22BEC938FBF08958F92C8
:100150009F92AF92BF92FF920F931F93CF93DF9323
:10016000F090EB022BE02F1508F44CC02091ED022B
:1001700008E512E0021B110927FD1395000F111F5E
:10018000000F111F2091EC02C8E8D0E0C21BD1097A
:1001900027FDD395CC0FDD1FCC0FDD1F4E010D2E9B
:1001A000000CAA08BB089801012E000C440B550B4B
:1001B000281939094A095B09DC010E94610D24EB09
:1001C00030E040E050E00E94370D820E931EA41EE6
:1001D000B51E8C169D062CF0E801801691060CF4D5
:1001E000E4012297CC0FDD1F2FB7F8948F2D90E0FC
:1001F000FC01EE0FFF1FE80FF91FEE55FD4FD283F4
:10020000C1832FBFDF91CF911F910F91FF90BF90BE
:10021000AF909F908F900895DB0114964D915C9163
:1002200015976D917C91DC01ED91FC910280F38139
:10023000E02D0994AF92BF92CF92DF92EF92FF929E
:100240000F931F93CF93DF936C017B018B01040FFE
:10025000151FEB015E01AE18BF08C017D10759F09A
:100260006991D601ED91FC910190F081E02DC601DC
:100270000995892B79F7C501DF91CF911F910F91D6
:10028000FF90EF90DF90CF90BF90AF900895FC016A
:10029000538D448D252F30E0842F90E0821B930BEB
:1002A000541710F0CF96089501970895FC01918D91
:1002B000828D981761F0A28DAE0FBF2FB11D5D9694
:1002C0008C91928D9F5F9F73928F90E008958FEF36
:1002D0009FEF0895FC01918D828D981731F0828DEA
:1002E000E80FF11D858D90E008958FEF9FEF089541
:1002F000FC01918D228D892F90E0805C9F4F821BA5
:1003000091098F739927089585E092E00E94780102
:1003100021E0892B09F420E0822F089580E090E00D
:10032000892B29F00E94840181110C94000008950A
:10033000FC01A48DA80FB92FB11DA35ABF4F2C915A
:10034000848D90E001968F739927848FA689B78951
:100350002C93A089B1898C91837080648C93938D48
:10036000848D981306C00288F389E02D80818F7DEB
:1003700080830895EF92FF920F931F93CF93DF93A3
:10038000EC0181E0888F9B8D8C8D98131AC0E889D1
:10039000F989808185FF15C09FB7F894EE89FF89A0
:1003A0006083E889F98980818370806480839FBF3E
:1003B00081E090E0DF91CF911F910F91FF90EF903E
:1003C0000895F62E0B8D10E00F5F1F4F0F7311274E
:1003D000E02E8C8D8E110CC00FB607FCFACFE88989
:1003E000F989808185FFF5CFCE010E949801F1CF78
:1003F000EB8DEC0FFD2FF11DE35AFF4FF0829FB7FD
:10040000F8940B8FEA89FB8980818062CFCFCF93EC
:10041000DF93EC01888D8823B9F0AA89BB89E8892C
:10042000F9898C9185FD03C0808186FD0DC00FB6D2
:1004300007FCF7CF8C9185FFF2CF808185FFEDCF50
:10044000CE010E949801E9CFDF91CF91089590E00D
:10045000FC01E859FF4F2491FC01EC55FF4F34910A
:10046000FC01E057FF4FE491EE23C9F0222339F05D
:10047000233001F1A8F4213019F1223029F1F0E004
:10048000EE0FFF1FE458FF4FA591B4918FB7F8947A
:10049000EC91611126C030953E233C938FBF0895A7
:1004A0002730A9F02830C9F0243049F78091800026
:1004B0008F7D03C0809180008F7780938000DFCF95
:1004C00084B58F7784BDDBCF84B58F7DFBCF8091E2
:1004D000B0008F778093B000D2CF8091B0008F7D35
:1004E000F9CF3E2BDACF3FB7F8948091F801909185
:1004F000F901A091FA01B091FB0126B5A89B05C0B6
:100500002F3F19F00196A11DB11D3FBFBA2FA92F92
:10051000982F8827BC01CD01620F711D811D911D8F
:1005200042E0660F771F881F991F4A95D1F70895FB
:100530008F929F92AF92BF92CF92DF92EF92FF92F3
:100540004B015C010E9473026B017C010E947302EB
:100550006C197D098E099F09683E734081059105DC
:10056000A8F321E0821A9108A108B10888EEC80E0C
:1005700083E0D81EE11CF11C81149104A104B10494
:1005800029F7FF90EF90DF90CF90BF90AF909F90B2
:100590008F900895089590E080E00895CF93DF93C1
:1005A000EC0160E08E810E94270261E08E810E9452
:1005B000270260E08E810E9427028BE891E001977C
:1005C000F1F7DF91CF910895CF92DF92EF92FF92F2
:1005D0000F931F93CF93DF936C017C0187E0E80EAC
:1005E000F11CD0E0C0E0062F10E0B8010C2E02C0D4
:1005F000759567950A94E2F76170F70181917F0123
:100600000E9427022196C430D10579F7C601DF91F7
:10061000CF911F910F91FF90EF90DF90CF900C94AE
:10062000CE02CF92DF92EF92FF920F931F93CF9360
:10063000DF93EC01F62E642F8C810E9427028D81BE
:100640008F3F19F060E00E9427020F2D10E08F8588
:1006500084FF25C06E0187E0C80ED11CF12CE12C6F
:10066000B8010E2C02C0759567950A94E2F7617087
:10067000F60181916F010E942702FFEFEF1AFF0A36
:1006800088E0E816F10461F7CE01DF91CF911F9168
:100690000F91FF90EF90DF90CF900C94CE02B801B5
:1006A00084E0759567958A95E1F7CE010E94E40292
:1006B0006F2DCE01DF91CF911F910F91FF90EF90A1
:1006C000DF90CF900C94E40240E0682F8EEE92E031
:1006D0000C941103CF93DF93823029F49091FD02A3
:1006E00098609093FD02809301031092020380E4CE
:1006F0008093030380E18093040380E580930503E6
:100700008091F2020E9488008091F3028F3F11F0E5
:100710000E9488008091F4020E948800CEEED2E010
:100720009E012E5E32408091FD0284FD0AC084E06D
:1007300090E02196281739073CF48E810E948800AA
:10074000EFCF88E090E0F5CF8BE39DE00197F1F7E4
:1007500060E08091F2020E94270260E08091F40242
:100760000E9427028091F3028F3F19F060E00E94FF
:1007700027028091FD0284FD39C063E08EEE92E095
:100780000E94E402CBE4D6E4CE010197F1F763E0E6
:100790008EEE92E00E94E4022197F1F763E08EEE84
:1007A00092E00E94E40283E592E00197F1F762E0B3
:1007B0008EEE92E00E94E4028091FD0280620E942F
:1007C000640384E08093FE028CE00E94640381E075
:1007D0000E9464038BE39FE10197F1F782E080932D
:1007E000FF0286E0DF91CF910C94640380620E9447
:1007F00064038BE496E40197F1F78091FD02806237
:100800000E94640383E592E00197F1F78091FD0275
:1008100080620E946403D0CF90910103691710F0A9
:100820006FEF690FE62FF0E0E251FD4F9489890FD9
:1008300080680C94640341E00E94110381E090E021
:1008400008950F931F93CF93DF938B0128E0829F2E
:10085000C001112480640E946403E801085F1F4FF7
:1008600069918EEE92E00E941B04C017D107C1F778
:10087000DF91CF911F910F910895DC01ED91FC91D3
:1008800011976091CD027091CE023097D9F0611529
:100890007105A9F414968D919C91892BB1F08081FA
:1008A00090E008958091D1029091D202892B69F055
:1008B000FB01808190E09195819591090895CF0188
:1008C0000C94E8106115710569F790E080E00895D7
:1008D000FB0101900020E9F73197AF01461B570B50
:1008E000DC01ED91FC910280F381E02D09940F93DE
:1008F0001F93CF93DF93EC0188819981009759F082
:100900002A813B812617370730F081E0DF91CF91B4
:100910001F910F9108958B016F5F7F4F0E942210EE
:10092000009759F0998388831B830A832C813D812A
:10093000232B59F7FC011082E8CF80E0E7CFEF923C
:10094000FF920F931F93CF93DF936115710541F4CD
:1009500080E0DF91CF911F910F91FF90EF9008956C
:1009600041155105B1F07B01EC010C811D81040F93
:10097000151FB8010E947704882351F3288139811B
:100980008C819D81B701820F931F0E94F1101D83FE
:100990000C8381E0DECFCF93DF93EC0188819981D6
:1009A000009711F00E94990F198218821D821C82F3
:1009B0001B821A82DF91CF910895CF93DF93EC01D0
:1009C000FB0101900020E9F73197AF01461B570B5F
:1009D0000E949F04811103C0CE010E94CB04CE016E
:1009E000DF91CF910895CF93DF93EC01FB01448118
:1009F0005581608171810E949F04811103C0CE01E5
:100A00000E94CB04CE01DF91CF910895EF92FF9227
:100A10000F931F93CF93DF93EC017B018A01BA01FF
:100A20000E94770481110BC0CE010E94CB04CE013D
:100A3000DF91CF911F910F91FF90EF9008951D834B
:100A40000C83B701888199810E94F110F0CFEF9259
:100A5000FF920F931F93CF93DF93CDB7DEB76297CB
:100A60000FB6F894DEBF0FBECDBF8C01CB01F801ED
:100A70001182108213821282158214824AE09E0132
:100A80002F5F3F4F7901B9010E94E30BF7010190FD
:100A90000020E9F73197AF014E195F09B701C8018E
:100AA0000E94060562960FB6F894DEBF0FBECDBF5A
:100AB000DF91CF911F910F91FF90EF900895CF9309
:100AC000DF93EC01FB018617970749F06081718184
:100AD0006115710541F0448155810E940605CE01E2
:100AE000DF91CF9108950E94CB04F9CFFC011182D0
:100AF00010821382128215821482FB010190002061
:100B0000E9F73197AF01461B570B0C940605FC0122
:100B100080819181009711F00C94990F08951F9294
:100B20000F920FB60F9211242F933F934F935F9321
:100B30006F937F938F939F93AF93BF93EF93FF93A5
:100B400085E092E00E949801FF91EF91BF91AF91F3
:100B50009F918F917F916F915F914F913F912F91D5
:100B60000F900FBE0F901F9018951F920F920FB607
:100B70000F9211242F938F939F93EF93FF93E09104
:100B80001502F09116028081E0911B02F0911C0287
:100B900082FD1BC0908180911E028F5F8F73209118
:100BA0001F02821741F0E0911E02F0E0EB5FFD4F63
:100BB000958F80931E02FF91EF919F918F912F91BE
:100BC0000F900FBE0F901F9018958081F4CF1F9249
:100BD0000F920FB60F9211242F933F938F939F93F1
:100BE000AF93BF938091F4019091F501A091F6012C
:100BF000B091F7013091F30123E0230F2D3758F521
:100C00000196A11DB11D2093F3018093F4019093EF
:100C1000F501A093F601B093F7018091F80190914E
:100C2000F901A091FA01B091FB010196A11DB11D3E
:100C30008093F8019093F901A093FA01B093FB011E
:100C4000BF91AF919F918F913F912F910F900FBEC8
:100C50000F901F90189526E8230F0296A11DB11D35
:100C6000D2CF1F920F920FB60F9211242F933F9362
:100C70004F935F936F937F938F939F93AF93BF93A4
:100C8000CF93DF93EF93FF938091F201C091C6025F
:100C9000D0E087FF24C010928500109284008091DC
:100CA000F2018F5F8093F2018091F201082E000C17
:100CB000990B8C179D0724F48091F2018C30C4F1BC
:100CC0008091840090918500049680349C4908F4BA
:100CD0007AC08091840090918500049676C08091BE
:100CE000F201082E000C990B8C179D07C4F6E091B9
:100CF000F2018E2FEE0F990BFC01EE0FFF1FE80F94
:100D0000F91FEE55FD4F808186FFC9CFE091F201BA
:100D10008E2FEE0F990BFC01EE0FFF1FE80FF91F4E
:100D2000EE55FD4F808160E08F730E942702B7CFA0
:100D30002091840030918500E091F2018E2FEE0F1A
:100D4000990BFC01EE0FFF1FE80FF91FEE55FD4F49
:100D500081819281820F931F9093890080938800F4
:100D6000E091F2018E2FEE0F990BFC01EE0FFF1FA9
:100D7000E80FF91FEE55FD4F808186FF11C0E0910D
:100D8000F2018E2FEE0F990BFC01EE0FFF1FE80F03
:100D9000F91FEE55FD4F808161E08F730E9427029D
:100DA000FF91EF91DF91CF91BF91AF919F918F9183
:100DB0007F916F915F914F913F912F910F900FBE57
:100DC0000F901F90189580E49CE990938900809380
:100DD00088008FEF8093F201E3CFCF931092080247
:100DE0001092070288EE93E0A0E0B0E08093090241
:100DF00090930A02A0930B02B0930C0287E691E055
:100E0000909306028093050285EC90E09093120285
:100E10008093110284EC90E090931402809313026B
:100E200080EC90E0909316028093150281EC90E0A4
:100E3000909318028093170282EC90E090931A022C
:100E40008093190286EC90E090931C0280931B0221
:100E500010921E0210921F02109220021092210284
:100E60001092F1021092F00289E791E09093EF0264
:100E70008093EE028CE08093F202CFEFC093F302F6
:100E80008BE08093F40285E08093F50284E0809308
:100E9000F60283E08093F70282E08093F8021092DA
:100EA000F9021092FA021092FB021092FC021092C8
:100EB000FD0281E00E946A038091C6028C30B8F581
:100EC00091E0980F9093C6028093EB0290E0FC01B2
:100ED000EE0FFF1FE80FF91FEE55FD4F88EB9BE06B
:100EE0009283818361E871E083ED92E00E94760550
:100EF00064E871E089ED92E00E94760567E871E0B0
:100F00008FED92E00E94760565E871E085EE92E053
:100F10000E94760561E871E08DEC92E00E94760512
:100F200060EC71E087EC92E0CF910C947605C09371
:100F3000EB02D8CFCF93DF93CDB7DEB768970FB66C
:100F4000F894DEBF0FBECDBF789484B5826084BDB7
:100F500084B5816084BD85B5826085BD85B58160BD
:100F600085BD80916E00816080936E00109281003B
:100F700080918100826080938100809181008160F6
:100F800080938100809180008160809380008091B7
:100F9000B10084608093B1008091B0008160809343
:100FA000B00080917A00846080937A0080917A000A
:100FB000826080937A0080917A00816080937A00C9
:100FC00080917A00806880937A001092C100E0914D
:100FD0001502F091160282E08083E0911102F091F7
:100FE00012021082E0911302F09114028FEC8083C0
:100FF00010921D02E0911902F0911A0286E080839E
:10100000E0911702F0911802808180618083E09165
:101010001702F0911802808188608083E0911702A6
:10102000F0911802808180688083E0911702F0912E
:10103000180280818F7D808368E171E080E00E94EA
:10104000210460E171E081E00E94210468E071E028
:1010500082E00E94210460E071E083E00E942104AC
:1010600082E00E946A038DE00E94880083E4C82E1B
:1010700081E0D82E9BE3E92E91E0F92EF701108153
:10108000F2E0EF0EF11C812F0E94880060E0812FBA
:101090000E942702CE14DF0489F78091EB028C3086
:1010A00008F050C086E00E9488008091EB02282F53
:1010B00030E0F901EE0FFF1FE20FF31FEE55FD4F79
:1010C0009081907C966090831092EC021092ED02D9
:1010D0002CE0622F0E94EB0E829FB001112430E0C1
:1010E00020E0AB01420F531FFA01EE0FFF1FE40F88
:1010F000F51FEE55FD4F908196FD16C02F5F3F4FB7
:101100002C30310571F781110FC01092800082E000
:10111000809381001092850010928400B19A809192
:101120006F00826080936F00E091EB028E2F90E061
:10113000FC01EE0FFF1FE80FF91FEE55FD4F8081F8
:101140008064808300912201109123012091FE018F
:101150003091FF01809120019091210128173907DA
:10116000E9F48091FC019091FD0180179107B1F4A1
:1011700080910002811112C02091CB023091CC02EB
:101180008091D1029091D2022817390739F487EC67
:1011900092E00E943D04892B09F4B2C081E00E94D4
:1011A00064038BE39FE10197F1F760E080E00E9428
:1011B0000C04B801CE0101960E9427056091200120
:1011C00070912101CE0107960E9427056AE871E01F
:1011D000CE010D960E947605BE01695F7F4FCE015C
:1011E0000D960E94F3046DEC72E00E94F3046DE82A
:1011F00071E00E94DD04BE016F5F7F4F0E94F30427
:10120000BC018EEE92E00E940C01CE010D960E9470
:101210008705CE0107960E948705CE0101960E94A0
:10122000870561E080E00E940C0462E08EEE92E0AF
:101230000E941B0480912401882331F061E971E050
:101240008EEE92E00E946804809103028823A9F048
:101250006AE971E0CE0101960E9476056DEC72E0BC
:10126000CE0101960E94F304BC018EEE92E00E9432
:101270000C01CE0101960E9487058091040288230B
:1012800031F060EA71E08EEE92E00E946804809195
:101290000102882331F068EA71E08EEE92E00E944C
:1012A000680463E08EEE92E00E941B0460E08FE031
:1012B0000E940C0460E08EEE92E00E941B0461E04C
:1012C0008FE00E940C0461E08EEE92E00E941B040D
:1012D00080912001909121019093FF018093FE0164
:1012E00080912201909123019093FD018093FC0154
:1012F000109200026DEC72E087EC92E00E945F05B4
:1013000020E420937C0080917A00806480937A00AE
:1013100080917A0086FDFCCF9091780080917900D1
:10132000892798278927CC24CA94DC2C8A3F9105E9
:101330007CF0D12CC12C843F31E093074CF0CC24BD
:10134000C394D12C8E3E92401CF0E3E0CE2ED12CE3
:10135000F2E0CF16D10408F0E5C180912401882382
:1013600009F412C18091200190912101CA94CD28E5
:1013700009F008C1823091052CF00197909321016A
:10138000809320016CE271E080E090E00E9498027E
:101390006091040270E0CE0101960E9427056091E1
:1013A000030270E0CE0107960E9427056091240198
:1013B00070E0CE0143960E9427051E861D86188A7E
:1013C0001F861A8A198ABE016D5E7F4FCE010D9667
:1013D0000E945F056AEB71E0CE010D960E94DD046C
:1013E000BE01695F7F4F0E94F3046AEB71E00E94C7
:1013F000DD04BE016F5F7F4F0E94F304BC0185E0F6
:1014000092E00E940C016EEB71E085E092E00E9498
:101410006804CE010D960E948705CE0143960E9476
:101420008705CE0107960E948705CE0101960E948E
:10143000870580910202882309F49AC1D12CC12C1E
:101440008091220190912301C816D9060CF08EC11B
:1014500061E871E0CE0101960E94760524E1622EDA
:10146000712C93E4A92E91E0B92E8BE3482E81E0F4
:10147000582E1501F101819091901F01F201019107
:1014800011912F01682D802F0E942702080D191D30
:10149000B8016F537E4F85E092E00E9468046EEBC6
:1014A00071E085E092E00E9468044E145F0411F739
:1014B0006DEC71E085E092E00E9468046EEB71E0F3
:1014C00085E092E00E9468046AE070E080E090E0CD
:1014D0000E949802F8E0AF0EB11C23E6A21621E0AC
:1014E000B20619F631E0631A710809F0BACFCE01DD
:1014F00001960E94870510E000E0C8010E94A70045
:1015000061E070E080E090E00E9498020F5F1F4F62
:10151000043B110591F790E080E00E94A70061E094
:1015200070E080E090E00E94980260E080E00E941D
:101530000C04B601CE0107960E9427051A82198273
:101540001C821B821E821D82BE01695F7F4FCE01FD
:1015500001960E945F0565EE71E0CE0101960E9442
:10156000DD04BC018EEE92E00E940C01CE010196DA
:101570000E948705CE0107960E9487058FEFC81A43
:10158000D80A5ECF0196FACE80910302882309F42F
:10159000A7C08090D1029090D20273EDA72E72E086
:1015A000B72E10E000E00430110509F4EEC0F5019B
:1015B000848195818815990591F5C5010E943D04A6
:1015C000892B69F5CD2889F10115110509F4DACEC9
:1015D000680181E0C81AD10896E09C9DB0019D9DEC
:1015E000700D11246D527D4F8DEC92E00E945F05CD
:1015F000000F111F000F111FF801E55DFE4FD6010E
:10160000AA0FBB1FAA0FBB1FA55DBE4F2D913D9119
:101610004D915C91608171818281938130C00F5FB7
:101620001F4FF6E0AF0EB11CBECF0330110509F419
:10163000A9CE68012FEFC21AD20A36E03C9DB00154
:101640003D9D700D11246D527D4F8DEC92E00E94F6
:101650005F05000F111F000F111FD801A55DBE4FC0
:10166000F601EE0FFF1FEE0FFF1FE55DFE4F20811D
:101670003181428153816D917D918D919C910E9428
:101680003E0E4B015C016091200170912101072EFB
:10169000000C880B990B0E941A0C9B01AC01C50130
:1016A000B4010E94790C4B015C0120E030E0A901FB
:1016B0000E94E60E20E030E040E05FE387FD0BC0D3
:1016C000C501B4010E94D20D0E94B00E7093210199
:1016D0006093200157CEC501B4010E94D10DF4CF13
:1016E00080910402882391F080912201909123013E
:1016F000CD2831F40196909323018093220142CEAC
:10170000181619060CF03ECE0197F5CF8091010214
:10171000882309F437CECD2809F034CE81E08093B8
:10172000020230CEC6010297029708F031CE8091B6
:1017300003022091010290912401E3E0CE16D1042E
:1017400071F43091040280932401309303022093BA
:1017500004029093010281E08093000213CE209353
:1017600024019093030280930102F5CF10920202AC
:10177000E0E0F0E0EF2B09F4E5CC0E94840188233F
:1017800009F4E0CC0E940000DDCCCD2809F0FACDB0
:1017900010E000E04ECF87EC92E00E9487058DECD0
:1017A00092E00E94870585EE92E00E9487058FED0A
:1017B00092E00E94870589ED92E00E94870583ED03
:1017C00092E00C948705BB274A3031F4992322F428
:1017D000BDE2909581959F4F0C94EF0BBB27FB01C9
:1017E0005527AA27880F991FAA1FA41710F0A41B1A
:1017F00083955051B9F7A05DAA3308F0A95DA19374
:10180000009779F7B111B1931192CB010C94080CA8
:10181000DC01FC01672F71917723E1F7329704C057
:101820007C916D9370836291AE17BF07C8F30895E2
:10183000E89409C097FB3EF490958095709561956A
:101840007F4F8F4F9F4F9923A9F0F92F96E9BB2720
:101850009395F695879577956795B795F111F8CF9C
:10186000FAF4BB0F11F460FF1BC06F5F7F4F8F4F07
:101870009F4F16C0882311F096E911C0772321F0FD
:101880009EE8872F762F05C0662371F096E8862F95
:1018900070E060E02AF09A95660F771F881FDAF7EC
:1018A000880F9695879597F90895990F0008550F19
:1018B000AA0BE0E8FEEF16161706E807F907C0F0D6
:1018C00012161306E407F50798F0621B730B840BDE
:1018D000950B39F40A2661F0232B242B252B21F4B8
:1018E00008950A2609F4A140A6958FEF811D811D58
:1018F00008950E948C0C0C94FD0C0E94EF0C38F0A3
:101900000E94F60C20F0952311F00C94E60C0C9438
:10191000EC0C11240C94310D0E940E0D70F3959F68
:10192000C1F3950F50E0551F629FF001729FBB27D6
:10193000F00DB11D639FAA27F00DB11DAA1F649F72
:101940006627B00DA11D661F829F2227B00DA11D25
:10195000621F739FB00DA11D621F839FA00D611DAB
:10196000221F749F3327A00D611D231F849F600DCC
:10197000211D822F762F6A2F11249F5750409AF0F5
:10198000F1F088234AF0EE0FFF1FBB1F661F771F81
:10199000881F91505040A9F79E3F510580F00C944C
:1019A000E60C0C94310D5F3FE4F3983ED4F386953A
:1019B00077956795B795F795E7959F5FC1F7FE2BEC
:1019C000880F911D9695879597F9089597F99F67C8
:1019D00080E870E060E008959FEF80EC08950024B7
:1019E0000A941616170618060906089500240A9484
:1019F00012161306140605060895092E0394000C0A
:101A000011F4882352F0BB0F40F4BF2B11F460FF98
:101A100004C06F5F7F4F8F4F9F4F089557FD9058C1
:101A2000440F551F59F05F3F71F04795880F97FBA2
:101A3000991F61F09F3F79F087950895121613065C
:101A40001406551FF2CF4695F1DF08C0161617068B
:101A50001806991FF1CF86957105610508940895C0
:101A6000E894BB2766277727CB0197F90895052EC1
:101A700097FB1EF400940E944E0D57FD07D00E9464
:101A8000A00D07FC03D04EF40C944E0D50954095DC
:101A9000309521953F4F4F4F5F4F0895909580951A
:101AA000709561957F4F8F4F9F4F08950E94C20D93
:101AB000A59F900DB49F900DA49F800D911D1124A2
:101AC0000895B7FF0C94560D0E94560D821B930B80
:101AD00008952F923F924F925F926F927F928F92D2
:101AE0009F92AF92BF92CF92DF92EF92FF920F93AD
:101AF0001F93CF93DF93CDB7DEB7CA1BDB0B0FB6B7
:101B0000F894DEBF0FBECDBF09942A883988488873
:101B10005F846E847D848C849B84AA84B984C88409
:101B2000DF80EE80FD800C811B81AA81B981CE0F00
:101B3000D11D0FB6F894DEBF0FBECDBFED010895E5
:101B4000A1E21A2EAA1BBB1BFD010DC0AA1FBB1FC1
:101B5000EE1FFF1FA217B307E407F50720F0A21B33
:101B6000B30BE40BF50B661F771F881F991F1A94A0
:101B700069F760957095809590959B01AC01BD01CA
:101B8000CF010895A29FB001B39FC001A39F700D24
:101B9000811D1124911DB29F700D811D1124911D75
:101BA00008955058BB27AA270E94E90D0C94FD0CFC
:101BB0000E94EF0C38F00E94F60C20F039F49F3FA1
:101BC00019F426F40C94EC0C0EF4E095E7FB0C945D
:101BD000E60CE92F0E940E0D58F3BA17620773073F
:101BE0008407950720F079F4A6F50C94300D0EF4D7
:101BF000E0950B2EBA2FA02D0B01B90190010C011D
:101C0000CA01A0011124FF27591B99F0593F50F434
:101C1000503E68F11A16F040A22F232F342F44278C
:101C2000585FF3CF469537952795A795F040539584
:101C3000C9F77EF41F16BA0B620B730B840BBAF054
:101C40009150A1F0FF0FBB1F661F771F881FC2F7BF
:101C50000EC0BA0F621F731F841F48F487957795D3
:101C60006795B795F7959E3F08F0B0CF9395880F8D
:101C700008F09927EE0F9795879508950E94520EC8
:101C80000C94FD0C0E94F60C58F00E94EF0C40F0F2
:101C900029F45F3F29F00C94E60C51110C94310D9E
:101CA0000C94EC0C0E940E0D68F39923B1F35523AC
:101CB00091F3951B550BBB27AA276217730784075F
:101CC00038F09F5F5F4F220F331F441FAA1FA9F3F5
:101CD00035D00E2E3AF0E0E832D091505040E695E3
:101CE000001CCAF72BD0FE2F29D0660F771F881F44
:101CF000BB1F261737074807AB07B0E809F0BB0B37
:101D0000802DBF01FF2793585F4F3AF09E3F51054A
:101D100078F00C94E60C0C94310D5F3FE4F3983EA0
:101D2000D4F3869577956795B795F7959F5FC9F733
:101D3000880F911D9695879597F90895E1E0660FB4
:101D4000771F881FBB1F621773078407BA0720F02D
:101D5000621B730B840BBA0BEE1F88F7E095089596
:101D60000E94B70E6894B1110C94310D08950E9431
:101D7000160D88F09F5798F0B92F9927B751B0F0FA
:101D8000E1F0660F771F881F991F1AF0BA95C9F7FF
:101D900014C0B13091F00E94300DB1E008950C9460
:101DA000300D672F782F8827B85F39F0B93FCCF313
:101DB000869577956795B395D9F73EF4909580957C
:101DC000709561957F4F8F4F9F4F08950E94550CDE
:101DD00008F48FEF0895991B79E004C0991F9617B6
:101DE00008F0961B881F7A95C9F780950895EE0F25
:101DF000FF1F0590F491E02D09940F931F93CF934B
:101E0000DF938230910510F482E090E0E0910803C6
:101E1000F091090330E020E0B0E0A0E0309799F4C1
:101E20002115310509F44AC0281B390B243031052E
:101E3000D8F58A819B816115710589F1FB01938336
:101E40008283FE0111C040815181028113814817B4
:101E50005907E0F04817590799F4109761F0129666
:101E60000C93129713961C933296CF01DF91CF916A
:101E70001F910F9108950093080310930903F4CF65
:101E80002115310551F04217530738F0A901DB0144
:101E90009A01BD01DF01F801C1CFEF01F9CF9093A5
:101EA000090380930803CDCFFE01E20FF31F819356
:101EB00091932250310939832883D7CF209106038B
:101EC00030910703232B41F4209127013091280101
:101ED00030930703209306032091250130912601BA
:101EE0002115310541F42DB73EB74091290150919C
:101EF0002A01241B350BE0910603F0910703E2173A
:101F0000F307A0F42E1B3F0B2817390778F0AC011C
:101F10004E5F5F4F2417350748F04E0F5F1F5093F9
:101F2000070340930603819391939FCFF0E0E0E095
:101F30009CCFCF93DF930097E9F0FC013297138297
:101F40001282A0910803B0910903ED0130E020E076
:101F50001097A1F420813181820F931F20910603F5
:101F6000309107032817390709F061C0F093070380
:101F7000E0930603DF91CF910895EA01CE17DF07C2
:101F8000E8F54A815B819E0141155105B1F7E901F0
:101F9000FB83EA8349915991C40FD51FEC17FD07C4
:101FA00061F4808191810296840F951FE9019983E4
:101FB0008883828193819B838A83F0E0E0E012969C
:101FC0008D919C9113970097B9F52D913C911197A4
:101FD000CD010296820F931F2091060330910703D3
:101FE0002817390739F6309751F5109209031092E6
:101FF0000803B0930703A0930603BCCFD383C28327
:1020000040815181840F951FC817D90761F44E5F35
:102010005F4F88819981480F591F518340838A817E
:102020009B81938382832115310509F0B0CFF09312
:102030000903E09308039ECFFD01DC01C0CF1382AA
:102040001282D7CFB0E0A0E0E8E2F0E10C946B0D93
:102050008C01009751F4CB010E94FD0E8C01C80148
:10206000CDB7DEB7E0E10C94870DFC01E60FF71F5A
:102070009C0122503109E217F30708F49DC0D901F1
:10208000CD91DC911197C617D70798F0C530D105CF
:1020900030F3CE0104978617970708F3C61BD70BBA
:1020A0002297C193D1936D937C93CF010E94990F96
:1020B000D6CF5B01AC1ABD0A4C018C0E9D1EA091BF
:1020C0000803B0910903512C412CF12CE12C1097FD
:1020D00031F580910603909107038815990509F061
:1020E0005CC04616570608F058C0809125019091B3
:1020F0002601009741F48DB79EB740912901509178
:102100002A01841B950BE817F90708F055C0F093D6
:102110000703E0930603F90171836083A0CF8D91DB
:102120009C91119712966C90129713967C9013972E
:10213000A815B90559F56C0142E0C40ED11CCA14AA
:10214000DB0420F1AC014A195B09DA0112961597FC
:1021500080F06282738251834083D9016D937C93B6
:10216000E114F10471F0D7011396FC93EE931297EA
:1021700076CF22968C0F9D1FF90191838083F30106
:10218000EFCFF0930903E093080369CF481659068F
:1021900008F42C017D01D3019ACFCB010E94FD0EE2
:1021A0007C01009749F0AE01B8010E94DF10C80120
:1021B0000E94990F870153CF10E000E050CFFB0140
:1021C000DC0102C001900D9241505040D8F70895B3
:1021D000FB01DC018D91019080190110D9F3990B5D
:1021E0000895FB01DC0101900D920020E1F70895B4
:1021F00010E0CDE5D0E004C0FE010E94F70E21966C
:10220000CE35D107C9F7F894FFCF0004061F0604A6
:10221000000000040C1F0C040000000E0E1F0E0432
:1022200000000000040E1F0E0E003200030001002B
:10223000000A0380006F12833A0AD7233CCDCCCC2E
:102240003D0000803F0A000900080007000100006F
:10225000000100000000000100010000000000017A
:10226000000000010001000000000001000000006B
:1022700000BA011A0147010702780156016A0100FC
:102280000000001B041A01CB02CA026D6D00636DD1
:1022900000646D004C3D007C4E3D004C656E6774E3
:1022A00068204C00556E69742000436F756E742071
:1022B0004E00507265737320757020746F207374B4
:1022C00061727400207C20000D0A00206973207365
:1022D000657420746F20002D2D2D2D2D2D2D2D2D6D
:1022E0002D2D2D2D2D2D2D2D2D2D2D2D2D2D002058
:0C22F000202020202020202020200000A2
:107E0000112484B714BE81FFF0D085E080938100F7
:107E100082E08093C00088E18093C10086E0809377
:107E2000C20080E18093C4008EE0C9D0259A86E02C
:107E300020E33CEF91E0309385002093840096BBD3
:107E4000B09BFECF1D9AA8958150A9F7CC24DD24C4
:107E500088248394B5E0AB2EA1E19A2EF3E0BF2EE7
:107E6000A2D0813461F49FD0082FAFD0023811F036
:107E7000013811F484E001C083E08DD089C08234E0
:107E800011F484E103C0853419F485E0A6D080C0E4
:107E9000853579F488D0E82EFF2485D0082F10E0AE
:107EA000102F00270E291F29000F111F8ED06801E7
:107EB0006FC0863521F484E090D080E0DECF843638
:107EC00009F040C070D06FD0082F6DD080E0C81688
:107ED00080E7D80618F4F601B7BEE895C0E0D1E017
:107EE00062D089930C17E1F7F0E0CF16F0E7DF06D8
:107EF00018F0F601B7BEE89568D007B600FCFDCFD4
:107F0000A601A0E0B1E02C9130E011968C91119780
:107F100090E0982F8827822B932B1296FA010C0160
:107F200087BEE89511244E5F5F4FF1E0A038BF0790
:107F300051F7F601A7BEE89507B600FCFDCF97BE46
:107F4000E89526C08437B1F42ED02DD0F82E2BD052
:107F50003CD0F601EF2C8F010F5F1F4F84911BD097
:107F6000EA94F801C1F70894C11CD11CFA94CF0C13
:107F7000D11C0EC0853739F428D08EE10CD085E9AC
:107F80000AD08FE07ACF813511F488E018D01DD067
:107F900080E101D065CF982F8091C00085FFFCCF94
:107FA0009093C60008958091C00087FFFCCF809118
:107FB000C00084FD01C0A8958091C6000895E0E648
:107FC000F0E098E1908380830895EDDF803219F02E
:107FD00088E0F5DFFFCF84E1DECF1F93182FE3DFCA
:107FE0001150E9F7F2DF1F91089580E0E8DFEE27F6
:047FF000FF270994CA
:027FFE00040479
:00000001FF
